:100000000C945D000C9485000C9485000C94850084
:100010000C9485000C9485000C9485000C9485004C
:100020000C9485000C9485000C9485000C940402BB
:100030000C9485000C9485000C9485000C9485002C
:100040000C94BA010C9485000C9485000C948500E6
:100050000C9485000C9485000C9485000C9485000C
:100060000C9485000C94850000000008000201003B
:100070000003040700000000000000000000000072
:10008000250028002B0000000000240027002A0083
:10009000040404040404040402020202020203032E
:1000A0000303030301020408102040800102040836
:1000B0001020010204081020160411241FBECFEFE7
:1000C000D8E0DEBFCDBF11E0A0E0B1E0E0E5F9E0AF
:1000D00002C005900D92A030B107D9F721E0A0E051
:1000E000B1E001C01D92A233B207E1F710E0CDE507
:1000F000D0E004C02197FE010E94A004CC35D107B6
:10010000C9F70E94C0020C94A6040C94000090E071
:10011000FC01EC55FF4F249180579F4FFC018491C7
:10012000882399F090E0880F991FFC01EA57FF4F50
:10013000A591B491FC01E458FF4F859194918FB73C
:10014000F894EC91E22BEC938FBF08958F929F92DD
:10015000AF92BF92FF920F931F93CF93DF938F3F86
:10016000980709F461C0853B910511F484EB90E098
:10017000F0902F012BE02F1508F44CC02091310195
:1001800008E512E0021B110927FD1395000F111F4E
:10019000000F111F20913001C8E8D0E0C21BD10927
:1001A00027FDD395CC0FDD1FCC0FDD1F4E010D2E8B
:1001B000000CAA08BB089801012E000C440B550B3B
:1001C000281939094A095B09DC010E945B0424EB08
:1001D00030E040E050E00E943104820E931EA41EE5
:1001E000B51E8C169D062CF0E801801691060CF4C5
:1001F000E4012297CC0FDD1F2FB7F8948F2D90E0EC
:10020000FC01EE0FFF1FE80FF91FE55FFE4FD283E1
:10021000C1832FBFDF91CF911F910F91FF90BF90AE
:10022000AF909F908F90089590E080E0A1CF90E0F4
:10023000FC01E859FF4F2491FC01EC55FF4F34912C
:10024000FC01E057FF4FE491EE23C9F0222339F07F
:10025000233001F1A8F4213019F1223029F1F0E026
:10026000EE0FFF1FE458FF4FA591B4918FB7F8949C
:10027000EC91611126C030953E233C938FBF0895C9
:100280002730A9F02830C9F0243049F78091800048
:100290008F7D03C0809180008F7780938000DFCFB7
:1002A00084B58F7784BDDBCF84B58F7DFBCF809104
:1002B000B0008F778093B000D2CF8091B0008F7D57
:1002C000F9CF3E2BDACF3FB7F89480910701909198
:1002D0000801A0910901B0910A0126B5A89B05C0AB
:1002E0002F3F19F00196A11DB11D3FBFBA2FA92FB5
:1002F000982F8827BC01CD01620F711D811D911DB2
:1003000042E0660F771F881F991F4A95D1F708951D
:100310008F929F92AF92BF92CF92DF92EF92FF9215
:100320004B015C010E9463016B017C010E9463012F
:100330006C197D098E099F09683E734081059105FE
:10034000A8F321E0821A9108A108B10888EEC80E2E
:1003500083E0D81EE11CF11C81149104A104B104B6
:1003600029F7FF90EF90DF90CF90BF90AF909F90D4
:100370008F9008951F920F920FB60F9211242F9312
:100380003F938F939F93AF93BF938091030190917D
:100390000401A0910501B09106013091020123E012
:1003A000230F2D3758F50196A11DB11D2093020191
:1003B0008093030190930401A0930501B09306017B
:1003C0008091070190910801A0910901B0910A0163
:1003D0000196A11DB11D8093070190930801A09380
:1003E0000901B0930A01BF91AF919F918F913F9105
:1003F0002F910F900FBE0F901F90189526E8230F96
:100400000296A11DB11DD2CF1F920F920FB60F926F
:1004100011242F933F934F935F936F937F938F9309
:100420009F93AF93BF93CF93DF93EF93FF9380910D
:100430000101C0910001D0E087FF24C01092850027
:1004400010928400809101018F5F8093010180915F
:100450000101082E000C990B8C179D0724F4809144
:1004600001018C30C4F18091840090918500049644
:1004700080349C4908F47AC0809184009091850072
:10048000049676C080910101082E000C990B8C1700
:100490009D07C4F6E09101018E2FEE0F990BFC0130
:1004A000EE0FFF1FE80FF91FE55FFE4F808186FF0B
:1004B000C9CFE09101018E2FEE0F990BFC01EE0FD9
:1004C000FF1FE80FF91FE55FFE4F808160E08F732B
:1004D0000E941701B7CF2091840030918500E091F0
:1004E00001018E2FEE0F990BFC01EE0FFF1FE80F9D
:1004F000F91FE55FFE4F81819281820F931F9093D8
:10050000890080938800E09101018E2FEE0F990BF6
:10051000FC01EE0FFF1FE80FF91FE55FFE4F808122
:1005200086FF11C0E09101018E2FEE0F990BFC01A7
:10053000EE0FFF1FE80FF91FE55FFE4F808161E0BE
:100540008F730E941701FF91EF91DF91CF91BF91BF
:10055000AF919F918F917F916F915F914F913F915B
:100560002F910F900FBE0F901F90189580E49CE97B
:1005700090938900809388008FEF80930101E3CFEF
:10058000789484B5826084BD84B5816084BD85B56E
:10059000826085BD85B5816085BD80916E0081607A
:1005A00080936E0010928100809181008260809320
:1005B0008100809181008160809381008091800022
:1005C0008160809380008091B10084608093B1004D
:1005D0008091B00081608093B00080917A00846047
:1005E00080937A0080917A00826080937A00809173
:1005F0007A00816080937A0080917A00806880938D
:100600007A001092C10084E00E94870082E00E947C
:1006100087008FE00E94870080912F018C3008F0C6
:1006200050C085E00E94870080912F01282F30E084
:10063000F901EE0FFF1FE20FF31FE55FFE4F908100
:10064000907C9560908310923001109231012CE0E3
:10065000622F0E949404829FB001112430E020E0B8
:10066000AB01420F531FFA01EE0FFF1FE40FF51FFE
:10067000E55FFE4F908196FD16C02F5F3F4F2C30F7
:10068000310571F781110FC01092800082E08093D4
:1006900081001092850010928400B19A80916F00C1
:1006A000826080936F00E0912F018E2F90E0FC011B
:1006B000EE0FFF1FE80FF91FE55FFE4F808180649A
:1006C00080838BE3E82E8FE1F82E9BE9C92E9FE013
:1006D000D92ECBECD7E020E0A22E20E0B22E61E0B4
:1006E00082E00E94170160E08FE00E94170164EF32
:1006F00071E080E090E00E94880161E08FE00E945C
:10070000170108EC10E061E084E00E941701C701C6
:100710000197F1F760E084E00E941701C70101979B
:10072000F1F70150110979F710E000E0C8010E94CB
:10073000A6006FE070E080E090E00E9488010F5F0B
:100740001F4F053B110591F704EB10E0C8010E9413
:10075000A6006FE070E080E090E00E948801015008
:100760001109A0F768EE73E080E090E00E94880134
:1007700060E082E00E94170108EC10E061E084E094
:100780000E941701C6010197F1F760E084E00E9422
:100790001701C6010197F1F70150110979F768EEC9
:1007A00073E080E090E00E94880161E082E00E94B6
:1007B000170108EE13E061E084E00E941701CE010A
:1007C0000197F1F760E084E00E941701CE010197E4
:1007D000F1F70150110979F768EE73E080E090E0DD
:1007E0000E94880160E082E00E94170108EE13E099
:1007F00061E084E00E941701CE010197F1F760E00B
:1008000084E00E941701CE010197F1F70150110910
:1008100079F768EE73E080E090E00E948801A1140F
:10082000B10409F45CCF0E94000059CF809100010F
:100830008C3098F491E0980F9093000180932F01F1
:1008400090E0FC01EE0FFF1FE80FF91FE55FFE4F80
:1008500088EB9BE09283818308958FEF80932F0133
:100860000895052E97FB1EF400940E94480457FD3E
:1008700007D00E94630407FC03D04EF40C94480494
:1008800050954095309521953F4F4F4F5F4F0895BC
:1008900090958095709561957F4F8F4F9F4F0895EC
:1008A0000E948504A59F900DB49F900DA49F800D7C
:1008B000911D11240895B7FF0C9450040E94500418
:1008C000821B930B0895A1E21A2EAA1BBB1BFD01EC
:1008D0000DC0AA1FBB1FEE1FFF1FA217B307E4071F
:1008E000F50720F0A21BB30BE40BF50B661F771F77
:1008F000881F991F1A9469F7609570958095909557
:100900009B01AC01BD01CF010895A29FB001B39F2F
:10091000C001A39F700D811D1124911DB29F700D08
:10092000811D1124911D0895991B79E004C0991F20
:10093000961708F0961B881F7A95C9F78095089539
:10094000EE0FFF1F0590F491E02D0994F894FFCF6E
:00000001FF
